:020000040800F2
:1000000000000220D5340008053600081336000829
:100010001B360008233600082B36000800000000BD
:10002000000000000000000000000000333600085F
:1000300041360008000000004F3600085D36000819
:100040001935000819350008193500081935000858
:100050001935000819350008193500081935000848
:100060001935000819350008193500081935000838
:100070001935000819350008193500081935000828
:100080001935000819350008193500081935000818
:100090001935000819350008193500081935000808
:1000A00019350008193500081935000819350008F8
:1000B00019350008193500081935000819350008E8
:1000C00019350008193500081935000819350008D8
:1000D00019350008193500081935000819350008C8
:1000E00019350008193500081935000819350008B8
:1000F00019350008193500081935000819350008A8
:100100001935000819350008193500081935000897
:100110001935000819350008193500081935000887
:100120001935000819350008193500081935000877
:100130001935000819350008193500081935000867
:100140001935000819350008193500081935000857
:100150001935000819350008193500081935000847
:100160001935000819350008193500081935000837
:100170001935000819350008193500081935000827
:080180001935000819350008CB
:1001900001F0FF01102A2BDB10F0070F08D010F838
:1001A000013B013A8B422DD010F0070F42B3F6D13C
:1001B000F0B441EA012141EA014122F007047FF055
:1001C00000070023F0E80256083C85EA010586EAAC
:1001D000010685FA47F5A3FA87F586FA47F6A5FAE8
:1001E00087F68EB9EED1F0BC01F0FF0102F00702F4
:1001F00032B110F8013B013A83EA010313B1F8D19F
:100200000020704701387047002D06BF354603387F
:10021000073815F0010F07D1013015F4807F02BFB8
:10022000013015F4C03F0130F0BC0138704700BF09
:10023000034613F8012B002AFBD1181A0138704726
:1002400081F0004102E000BF83F0004330B54FEA87
:1002500041044FEA430594EA050F08BF90EA020FF4
:100260001FBF54EA000C55EA020C7FEA645C7FEA87
:10027000655C00F0E2804FEA5454D4EB5555B8BFAA
:100280006D420CDD2C4480EA020281EA030382EA1B
:10029000000083EA010180EA020281EA0303362DAD
:1002A00088BF30BD11F0004F4FEA01314FF4801C80
:1002B0004CEA113102D0404261EB410113F0004F92
:1002C0004FEA03334CEA133302D0524263EB430349
:1002D00094EA050F00F0A780A4F10104D5F1200EE7
:1002E0000DDB02FA0EFC22FA05F2801841F1000142
:1002F00003FA0EF2801843FA05F359410EE0A5F116
:1003000020050EF1200E012A03FA0EFC28BF4CF046
:10031000020C43FA05F3C01851EBE37101F00045FC
:1003200007D54FF0000EDCF1000C7EEB00006EEB09
:100330000101B1F5801F1BD3B1F5001F0CD3490893
:100340005FEA30004FEA3C0C04F101044FEA4452EA
:1003500012F5800F80F09A80BCF1004F08BF5FEA71
:10036000500C50F1000041EB045141EA050130BD51
:100370005FEA4C0C404141EB0101013C28BFB1F563
:10038000801FE9D291F0000F04BF01460020B1FAAE
:1003900081F308BF2033A3F10B03B3F120020CDA81
:1003A0000C3208DD02F1140CC2F10C0201FA0CF05F
:1003B00021FA02F10CE002F11402D8BFC2F1200CC4
:1003C00001FA02F120FA0CFCDCBF41EA0C0190407A
:1003D000E41AA2BF01EB0451294330BD6FEA0404C3
:1003E0001F3C1CDA0C340EDC04F11404C4F12002AE
:1003F00020FA04F001FA02F340EA030021FA04F3C0
:1004000045EA030130BDC4F10C04C4F1200220FA16
:1004100002F001FA04F340EA0300294630BD21FA54
:1004200004F0294630BD94F0000F83F4801306BF1A
:1004300081F480110134013D4EE77FEA645C18BF0E
:100440007FEA655C29D094EA050F08BF90EA020FA5
:1004500005D054EA000C04BF1946104630BD91EA9D
:10046000030F1EBF0021002030BD5FEA545C05D1A0
:100470004000494128BF41F0004130BD14F58004DF
:100480003CBF01F5801130BD01F0004545F0FE4153
:1004900041F470014FF0000030BD7FEA645C1ABF88
:1004A000194610467FEA655C1CBF0B46024650EABF
:1004B000013406BF52EA033591EA030F41F40021EB
:1004C00030BD00BF90F0000F04BF0021704730B571
:1004D0004FF4806404F132044FF000054FF0000146
:1004E00050E700BF90F0000F04BF0021704730B507
:1004F0004FF4806404F1320410F0004548BF4042DC
:100500004FF000013EE700BF42004FEAE2014FEA30
:1005100031014FEA02701FBF12F07F4393F07F4F0B
:1005200081F06051704732F07F4208BF704793F00E
:100530007F4F04BF41F40021704730B54FF4607421
:1005400001F0004521F000411CE700BF50EA010224
:1005500008BF704730B54FF000050AE050EA0102CD
:1005600008BF704730B511F0004502D5404261EB3D
:1005700041014FF4806404F132045FEA915C3FF47E
:10058000D8AE4FF003025FEADC0C18BF03325FEA1B
:10059000DC0C18BF033202EBDC02C2F1200300FACC
:1005A00003FC20FA02F001FA03FE40EA0E0021FAF1
:1005B00002F11444BDE600BF70B54FF0FF0C4CF4DF
:1005C000E06C1CEA11541DBF1CEA135594EA0C0F91
:1005D00095EA0C0F00F0DEF82C4481EA030621EACC
:1005E0004C5123EA4C5350EA013518BF52EA033507
:1005F00041F4801143F4801338D0A0FB02CE4FF0B9
:100600000005E1FB02E506F00042E0FB03E54FF0E8
:100610000006E1FB03569CF0000F18BF4EF0010EE0
:10062000A4F1FF04B6F5007F64F5407404D25FEADC
:100630004E0E6D4146EB060642EAC62141EA55518F
:100640004FEAC52040EA5E504FEACE2EB4F1FD0CD1
:1006500088BFBCF5E06F1ED8BEF1004F08BF5FEA4F
:10066000500E50F1000041EB045170BD06F0004601
:1006700046EA010140EA020081EA0301B4EB5C04AE
:10068000C2BFD4EB0C0541EA045170BD41F48011A6
:100690004FF0000E013C00F3AB8014F1360FDEBFCB
:1006A000002001F0004170BDC4F10004203C35DAA7
:1006B0000C341BDC04F11404C4F1200500FA05F32A
:1006C00020FA04F001FA05F240EA020001F00042CB
:1006D00021F0004110EBD37021FA04F642EB060141
:1006E0005EEA430E08BF20EAD37070BDC4F10C046B
:1006F000C4F1200500FA04F320FA05F001FA04F22F
:1007000040EA020001F0004110EBD37041F100011A
:100710005EEA430E08BF20EAD37070BDC4F1200525
:1007200000FA05F24EEA020E20FA04F301FA05F28D
:1007300043EA020321FA04F001F0004121FA04F235
:1007400020EA020000EBD3705EEA430E08BF20EA05
:10075000D37070BD94F0000F0FD101F0004640003F
:1007600041EB010111F4801F08BF013CF7D041EAC1
:10077000060195F0000F18BF704703F000465200C5
:1007800043EB030313F4801F08BF013DF7D043EA96
:100790000603704794EA0C0F0CEA135518BF95EA4C
:1007A0000C0F0CD050EA410618BF52EA4306D1D1D3
:1007B00081EA030101F000414FF0000070BD50EAF2
:1007C000410606BF1046194652EA430619D094EA7C
:1007D0000C0F02D150EA013613D195EA0C0F05D166
:1007E00052EA03361CBF104619460AD181EA0301BA
:1007F00001F0004141F0FE4141F470014FF0000072
:1008000070BD41F0FE4141F4780170BD70B54FF00C
:10081000FF0C4CF4E06C1CEA11541DBF1CEA13558C
:1008200094EA0C0F95EA0C0F00F0A7F8A4EB05046E
:1008300081EA030E52EA03354FEA013100F0888065
:100840004FEA03334FF0805545EA131343EA12632E
:100850004FEA022245EA111545EA10654FEA0026E3
:100860000EF000419D4208BF964244F1FD0404F59C
:10087000407402D25B084FEA3202B61A65EB0305F8
:100880005B084FEA32024FF480104FF4002CB6EBB5
:10089000020E75EB030E22BFB61A754640EA0C0035
:1008A0005B084FEA3202B6EB020E75EB030E22BF75
:1008B000B61A754640EA5C005B084FEA3202B6EBB6
:1008C000020E75EB030E22BFB61A754640EA9C0075
:1008D0005B084FEA3202B6EB020E75EB030E22BF45
:1008E000B61A754640EADC0055EA060E18D04FEA03
:1008F000051545EA16754FEA06164FEAC30343EAA3
:1009000052734FEAC2025FEA1C1CC0D111F4801F6F
:100910000BD141EA00014FF000004FF0004CB6E768
:1009200011F4801F04BF01430020B4F1FD0C88BF07
:10093000BCF5E06F3FF6AFAEB5EB030C04BFB6EB12
:10094000020C5FEA500C50F1000041EB045170BD05
:100950000EF0004E4EEA113114EB5C04C2BFD4EB32
:100960000C0541EA045170BD41F480114FF0000EB6
:10097000013C90E645EA060E8DE60CEA135594EA32
:100980000C0F08BF95EA0C0F3FF43BAF94EA0C0F35
:100990000AD150EA01347FF434AF95EA0C0F7FF4AA
:1009A00025AF104619462CE795EA0C0F06D152EAFE
:1009B00003353FF4FDAE1046194622E750EA4106E2
:1009C00018BF52EA43067FF4C5AE50EA41047FF4F3
:1009D0000DAF52EA43057FF4EBAE12E74FF0FF3C58
:1009E00006E000BF4FF0010C02E000BF4FF0010C29
:1009F0004DF804CD4FEA410C7FEA6C5C4FEA430CA2
:100A000018BF7FEA6C5C1BD001B050EA410C0CBFF0
:100A100052EA430C91EA030F02BF90EA020F002052
:100A2000704710F1000F91EA030F58BF994208BFB9
:100A300090422CBFD8176FEAE37040F00100704776
:100A40004FEA410C7FEA6C5C02D150EA013C07D1CD
:100A50004FEA430C7FEA6C5CD6D152EA033CD3D018
:100A60005DF8040B704700BF8446104662468C4612
:100A70001946634600E000BF01B5FFF7B7FF002845
:100A800048BF10F1000F01BD4DF808EDFFF7F4FF6E
:100A90000CBF012000205DF808FB00BF4DF808EDF9
:100AA000FFF7EAFF34BF012000205DF808FB00BF1C
:100AB0004DF808EDFFF7E0FF94BF012000205DF83E
:100AC00008FB00BF4DF808EDFFF7CEFF94BF0120F3
:100AD00000205DF808FB00BF4DF808EDFFF7C4FFEC
:100AE00034BF012000205DF808FB00BF4FEA410C35
:100AF0007FEA6C5C02D150EA013C0AD14FEA430C18
:100B00007FEA6C5C02D152EA033C02D14FF0000054
:100B100070474FF0010070474FEA410212F5001292
:100B200015D211D56FF47873B3EB625212D94FEA34
:100B3000C12343F0004343EA505311F0004F23FA1E
:100B400002F018BF404270474FF00000704750EA73
:100B5000013005D111F0004008BF6FF00040704730
:100B60004FF00000704700BF0348044B834202D09F
:100B7000034B03B118477047C8010020C80100208B
:100B8000000000000548064B1B1AD90F01EBA3011A
:100B9000491002D0034B03B118477047C801002029
:100BA000C80100200000000010B5064C237843B9AE
:100BB000FFF7DAFF044B13B10448AFF300800123C1
:100BC000237010BDC8010020000000006839000833
:100BD00008B5054B1BB105490548AFF30080BDE8DA
:100BE0000840FFF7CFBF00BF00000000CC0100208D
:100BF000683900082DE9FF4757EC106B002F0C46B1
:100C000019463B46BBBF07F100431F4600232D2377
:100C10000B700D9BDDF830A0914623F02008BCBF7F
:100C200032461646B8F1460F05D0B8F1450F00D14F
:100C30000134022100E0032103AB019302AB0093D6
:100C400047EC106B5346224600F012FEB8F1470FF6
:100C5000054619D119F0010F0ED000EB040900224E
:100C6000002330463946FFF70FFF08B1CDF80C904E
:100C70003022039B4B451ED3039B0E9A5B1B2846D9
:100C8000136004B0BDE8F087B8F1460F00EB04092B
:100C9000E5D10378302B0AD10022002330463946B3
:100CA000FFF7F2FE18B9C4F10104CAF80040DAF8FF
:100CB00000309944D3E7591C03911A70D9E7F7B56E
:100CC0000029BABF49422D232B2309290270437002
:100CD00029DD0DF1070425460A272246B1FBF7F668
:100CE00007FB1613303302F8013C0B46632B04F16B
:100CF000FF343146F1DC3031931E04F8011C411CF5
:100D00001C46AB420AD30DF109039B1AA54238BF1A
:100D10000023821C1344181A03B0F0BD13F8016BB2
:100D200001F8016FEDE7302330318370C170031D8E
:100D3000F1E700002DE9F04F8DB00C46DDF858804A
:100D400016461F46054600F0BBFC0368069318468E
:100D5000FFF76EFA00230A93D8F8003094F818A031
:100D6000D4F800B00790073323F00703B3EC027BFD
:100D70008DED047BC8F80030DDE9048323F00049E1
:100D800084ED127B9C4B4FF0FF3240464946FFF703
:100D9000ADFE70BB984B4FF0FF3240464946FFF71F
:100DA00087FE30BBDDE9040100220023FFF776FE59
:100DB00010B12D2384F84330904A914BBAF1470F7C
:100DC0008CBF90469846032323612BF004032360D5
:100DD0004FF00009009733460BAA2146284600F041
:100DE000D1F9013040F08C804FF0FF300DB0BDE8FC
:100DF000F08FDDE9042310461946FFF777FE40B176
:100E0000059B804A002BBCBF2D2384F843307E4BCA
:100E1000D4E763685A1C0AF0DF093BD106236360FC
:100E20004BF480620023226003930AABCDE901A357
:100E300009AB009361689DED040B0DF12303284677
:100E4000FFF7D8FEB9F1470F0999804629D1C81C90
:100E500002DB63688B4241DAAAF1020A5FFA8AFA7E
:100E60000139524604F150000991FFF728FF0A9A10
:100E70001318012A8146236102DC2268D20701D5BA
:100E8000013323619DF82330002BA3D02D2384F858
:100E900043309FE7B9F1470FC2D1002BC0D10123E6
:100EA000BDE7BAF1650FDBD9BAF1660F18D1002999
:100EB00063680BDD216113B92268D00702D50133C5
:100EC0000B442361A1654FF00009DBE713B92268E9
:100ED000D20701D50233F4E70123F2E74FF0670AA6
:100EE0000A9B8B4205DC23682161D807EAD54B1C9D
:100EF000E7E70029D4BFC1F1020201221344E0E771
:100F000023685A0507D42369424631462846B84724
:100F100001302BD168E7BAF1650F40F2DD80D4E9EA
:100F2000120100220023FFF7AFFD002833D0374A1B
:100F3000012331462846B84701303FF455AFDDE97B
:100F40000938434502DB2368D8070FD5DDE90623BE
:100F500031462846B84701303FF446AF4FF000090C
:100F600008F1FF3804F11A0AC84509DC23689B0719
:100F700000F10381E0680B9B9842B8BF184635E743
:100F80000123524631462846B84701303FF42CAF82
:100F900009F10109E8E7099B002B39DC1B4A012311
:100FA00031462846B84701303FF41EAFDDE9093924
:100FB00059EA030302D12368D907D7D5DDE906230F
:100FC00031462846B84701303FF40EAF4FF0000AD3
:100FD00004F11A0B099B5B42534501DC4B4693E736
:100FE00001235A4631462846B84701303FF4FCAE4B
:100FF0000AF1010AEEE700BFFFFFEF7F8439000826
:10100000803900088C3900088839000890390008B8
:10101000A36DDDF828A05345A8BF5346002B994681
:1010200036DC4FF0000B29EAE97904F11A02A36DCE
:101030000493A3EB09035B4531DC099B9A453ADC39
:101040002368DA0737D4099BAAEB0309049BAAEBB0
:1010500003039945A8BF9946B9F1000F33DC4FF05F
:10106000000829EAE97904F11A0B099BAAEB0303AA
:10107000A3EB090343457FF779AF01235A46314675
:101080002846B84701303FF4AFAE08F10108ECE75D
:10109000424631462846B8470130C2D1A4E6012372
:1010A000314628460492B84701303FF49DAE049A79
:1010B0000BF1010BBBE7DDE9062331462846B847B3
:1010C0000130C0D190E6049A4B464244314628464E
:1010D000B8470130C3D187E6DDF828A0BAF1010F87
:1010E00001DCDB0736D50123424631462846B847A6
:1010F00001303FF479AEDDE9062331462846B84792
:1011000001303FF471AED4E91201002200230AF14C
:10111000FF3AFFF7B9FCC0B9534608F10102314666
:101120002846B84701300CD15EE601235A463146C5
:101130002846B84701303FF457AE08F10108D045C2
:10114000F3DB4B4604F15002DFE64FF0000804F1F8
:101150001A0BF4E701234246E1E701234A463146F0
:101160002846B84701303FF43FAE08F10108E36874
:101170000B995B1A4345F0DCFCE64FF0000804F1E4
:101180001909F4E72DE9F047164698468A680B6975
:10119000DDF820909342B8BF1346336091F84320A6
:1011A00007460C460AB1013333602368990642BFF3
:1011B000336802333360256815F0060506D104F163
:1011C000190AE36832689B1AAB4226DC94F8433074
:1011D0002268003B18BF012392062BD404F143027E
:1011E00041463846C84701301ED02368226903F0C3
:1011F0000603042B02BFE5683368ED1AA3680CBF31
:1012000025EAE57500259342C4BF9B1AED18002618
:101210001A34B5421AD1002008E001235246414653
:101220003846C847013003D14FF0FF30BDE8F087A2
:101230000135C6E7E1185A1C302081F843002244EA
:1012400094F8451082F843100233C7E70123224681
:1012500041463846C8470130E6D00136D9E700009C
:101260002DE9FF470F7E0C9E782F914680460C4655
:101270009A4601F1430207D8622F0AD8002F00F0E6
:10128000D280582F00F0B78004F1420684F84270F3
:101290003AE0A7F16303152BF6D801A151F823F02A
:1012A000F91200080D1300088912000889120008BD
:1012B00089120008891200080D130008891200081D
:1012C0008912000889120008891200080D1400080C
:1012D00037130008C3130008891200088912000898
:1012E0002F1400088912000837130008891200081B
:1012F00089120008CB13000833681A1D1B6832607E
:1013000004F1420684F8423001239DE033682068EE
:10131000191D3160060601D51D6803E04506FBD5A1
:10132000B3F90050002D03DA2D236D4284F84330C9
:1013300059480A2310E021683368080653F8045B13
:1013400002D4490648BFADB26F2F5348336059D11C
:101350000823002184F843106668A660002E05DB90
:1013600021682E4321F0040121604DD01646B5FBC3
:10137000F3F103FB1157C75D06F8017D2F46BB4211
:101380000D46F4D9082B0BD12368DF0708D5236954
:1013900061689942DEBF302306F8013C06F1FF3652
:1013A000921B2261CDF800A04B4603AA214640467D
:1013B000FFF7E8FE01304CD14FF0FF3004B0BDE83C
:1013C000F087236843F0200323603448782784F8AB
:1013D0004570236831681F0651F8045B02D45F062C
:1013E00048BFADB23160D90744BF43F0200323604A
:1013F0001DB11023ADE72848E9E7236823F0200357
:101400002360F6E70A23A4E71646BBE7336825689E
:101410006169181D30602E061B6801D5196002E055
:101420006806FBD51980002323611646BAE73368A6
:101430001A1D32601E68626800213046FEF7A8FE61
:1014400008B1801B606063682361002384F8433027
:10145000A8E72369324649464046D0470130ABD021
:1014600023689B0713D4E068039B9842B8BF1846D3
:10147000A4E70123324649464046D04701309BD07D
:101480000135E36803995B1AAB42F2DCEBE7002518
:1014900004F11906F5E700BF92390008A3390008E6
:1014A000002310B50446C0E90033C0E9043383606B
:1014B00081814366C2818361194608225C3000F055
:1014C000F7F80D4B63620D4BA3620D4BE3620D4BBE
:1014D00023630D4B24629C4206D003F168029442C0
:1014E00002D0D0339C4205D104F15800BDE8104031
:1014F00000F030B910BD00BF291600084B160008D7
:1015000083160008A9160008E4010020024A0349D6
:10151000034800F06BB800BF00000020452E000813
:101520001000002041680C4B994210B5044601D0D0
:1015300001F088FCA168094B994202D0204601F0D5
:1015400081FCE168064B994204D02046BDE810407A
:1015500001F078BC10BD00BFE40100204C02002067
:10156000B40200200C4B0D4A0D4810B504211A603E
:101570000022FFF795FF0A4B01221C46092103F1C7
:101580006800FFF78DFF04F1D0000222BDE8104093
:101590001221FFF785BF00BF1C0300200D150008B6
:1015A000E4010020014800F0D6B800BF2503002068
:1015B000014800F0D1B800BF2503002010B5044653
:1015C000FFF7F0FF236A1BB1BDE81040FFF7F0BF43
:1015D000044B2362044B1B68002BF5D1FFF7C2FFBD
:1015E000F2E700BF251500081C0300202DE9F84391
:1015F0000746884614460026D4E90195B9F1010949
:1016000005D52468002CF7D13046BDE8F883AB89B6
:10161000012B07D9B5F90E30013303D029463846DE
:10162000C04706436835E9E710B50C46B1F90E101E
:1016300000F06CF80028ABBF636DA3891B1823F47E
:101640008053ACBF6365A38110BD2DE9F0411F46F7
:101650008B89DB0505460C46164605D5B1F90E10FB
:101660000223002200F040F8A389B4F90E1023F4FD
:101670008053A38132463B462846BDE8F04100F046
:1016800057B810B50C46B1F90E1000F02DF8B4F9AA
:101690000C30421C0BBF23F4805343F48053A381CE
:1016A000A38118BF606510BDB1F90E1000F00CB831
:1016B00002440346934200D1704703F8011BF9E747
:1016C000004870474C01002038B5064D0023044601
:1016D00008462B6002F0D8F8431C02D12B6803B1F6
:1016E000236038BD2003002038B5074D0446084666
:1016F000114600222A601A4602F0EDF8431C02D17E
:101700002B6803B1236038BD2003002038B5074D96
:1017100004460846114600222A601A4602F07BF869
:10172000431C02D12B6803B1236038BD2003002085
:1017300038B5074D04460846114600222A601A466D
:1017400002F086F8431C02D12B6803B1236038BD38
:10175000200300207047704770472DE9F74F036959
:101760000C69A34207467EDB013C01F11408A3008B
:1017700000F11405009305EB8403019358F824301D
:1017800055F8242001339A4208EB8409B2FBF3F6A2
:101790002ED34FF0000AC446AE46D3465CF8043B55
:1017A00098B206FB00A0020C1B0C06FB0323DEF81C
:1017B000002080B292B2121A5A44DEF800004FEABA
:1017C000134A9BB2C3EB224303EB104392B242EAAB
:1017D0000342E1454EF8042B4FEA234BDED2009B37
:1017E000EB582BB9019B043B9D421A462FD33C6119
:1017F000384601F099F9002825DB2946002058F8E1
:10180000042BD1F800C01FFA82FE1FFA8CF3A3EB61
:101810000E030344120CC2EB234202EB1C429BB2A8
:1018200043EA0243C14541F8043B4FEA2240E6D275
:1018300055F8242005EB840322B9043B9D421A4647
:101840000BD33C610136304603B0BDE8F08F12681F
:10185000043B002ACBD1013CC6E71268043B002AB6
:10186000EFD1013CEAE70020EEE7000000000000B5
:101870002DE9F04F99B08DED0E0B0C92C269229CB0
:101880000A9157EC106B8146139382B9102000F037
:1018900019FE0246C9F81C0020B9AD4BEF21AD4836
:1018A00001F016FB0023C0E901330360C360116837
:1018B00059B152684A60012393408B60484600F05A
:1018C000F5FED9F81C3000221A60B7F10008B5BF48
:1018D00001230023236023609F4BBCBF28F00048F6
:1018E000CDF83C8033EA08031AD1139AC8F31308E1
:1018F00042F20F7358EA0608136000F06C85239BD0
:1019000053B9964B21E0964B00930833239A13600A
:10191000009819B0BDE8F08F904B00930333F5E7C2
:101920009DED0E7B002251EC170B00238DED067B05
:10193000FFF7AAF8824650B1139A01231360239B44
:1019400013B1239A874B1360874B0093E0E79DED1B
:10195000060B16AA17A9484601F09AF95FEA18542F
:10196000169D019079D0079BCDF850A0C3F31303C7
:10197000DDE9060143F07F5343F44013A4F2FF3442
:1019800019460022794BFEF75FFC6BA3D3E90023D5
:10199000FEF712FE6AA3D3E90023FEF757FC0646C2
:1019A00020460F46FEF79EFD67A3D3E90023FEF70E
:1019B00003FE02460B4630463946FEF747FC064614
:1019C0000F46FFF7A9F8002280460023304639462B
:1019D000FFF764F848B14046FEF784FD32463B46C7
:1019E000FFF752F808B908F1FF38B8F1160F51D8CF
:1019F0005F4B03EBC803D3E90023DDE90601FFF7E2
:101A00004DF8002848D008F1FF38002312932D1B11
:101A10006B1E089343BF0023C5F1010708930027FD
:101A2000B8F1000F3ADB089BCDF8348043440893AB
:101A3000002309930A9B092B64D8052BC4BF043BE0
:101A40000A930A9BA3F10203CCBF00240124032BB9
:101A500064D8DFE803F05355362B179C2C4404F26E
:101A60003243202BC1BFC3F1400308FA03F804F24C
:101A7000124326FA03F3D6BFC3F1200348EA03005A
:101A800006FA03F0FEF71EFD0122A1F1F873013CF6
:101A9000149275E70123B9E71290B8E7C8F1000383
:101AA00009930023A7EB08070D93C3E701230B93CA
:101AB0000C9B434405930133012B0493B8BF0123CE
:101AC00006E001230B930C9B002B2ADDCDE90433A8
:101AD000D9F81C000021042202F114059D4201F1F5
:101AE000010623D94160484600F0A2FD009000287D
:101AF00042D1204B024640F2AF11D0E60023E1E78D
:101B00000023D4E701240023CDE90A344FF0FF334A
:101B1000CDE90433002212230C92D9E701230B9361
:101B2000F4E70123CDE904331A46F5E752003146C4
:101B3000D2E700BFAFF3008061436F63A787D23F56
:101B4000B3C8608B288AC63FFB799F501344D33FAC
:101B5000C1390008D83900080000F07FBD390008FD
:101B6000B439000891390008903900080000F83FA6
:101B7000283B0008313A0008D9F81C30009A1A6056
:101B8000049B0E2B00F2A180002C00F09E80B8F187
:101B9000000F36DD9E4B08F00F0203EBC20318F472
:101BA000807FD3E900AB4FEA281516D0994BDDE9C9
:101BB0000601D3E90823FEF729FECDE9020105F06D
:101BC0000F050324934E75B9DDE9020152465B46C9
:101BD000FEF71CFE82468B462DE09DED067B02241F
:101BE0008DED027BEEE7E90708D550465946D6E968
:101BF0000023FEF7E1FC013482468B466D10083667
:101C0000E1E700F0AD80C8F10005814B814E05F0A1
:101C10000F0203EBC203D3E90023DDE90601FEF75F
:101C2000CBFC2D1182468B4600230224002D40F070
:101C30008C80002BCED1129B002B00F09580764B30
:101C4000002250465946FEF729FF002800F08C80FC
:101C5000049B002B00F08880059B002B35DD08F1EC
:101C6000FF330293504659466C4B0022FEF7A4FC0A
:101C7000059E82468B4601342046FEF733FC5246D1
:101C80005B46FEF799FC664B0022FEF7DFFA04463E
:101C9000A1F15075CDE91045002E69D1614B0022AC
:101CA00050465946FEF7D0FA22462B4682468B46CE
:101CB000FEF712FF002840F09482224605F100430F
:101CC00050465946FEF7EAFE20BB179B002BC0F298
:101CD0006081B8F10E0F00F35C814D4B03EBC8033C
:101CE000D3E900AB0C9B002B80F2EE80049B002B11
:101CF00000F3EA800ED14B4B002250465946FEF7C6
:101D00005BFC02460B46DDE90601FEF7D1FE00282A
:101D100000F06A8200252C460C9B009EDB43029358
:101D2000274600242946484600F0C0FC002F00F05A
:101D3000C1802CB1BC4203D02146484600F0B6FC1D
:101D40003946484600F0B2FCB4E0EA0705D5D6E9CA
:101D50000023FEF731FC013401236D10083665E7DE
:101D6000DDE906AB022466E7049ECDF8088083E730
:101D7000274B03EBC60353E902010B9B002B55D005
:101D800002460B4600202849FEF740FDDDE91023FE
:101D9000FEF75AFA009BCDE910019D191E465946DF
:101DA0005046FEF7B9FE0446FEF79CFB02460B4682
:101DB00050465946FEF748FA3034DDE9102306F85C
:101DC000014B82468B46FEF769FE002872D15246CF
:101DD0005B4611490020FEF737FADDE91023FEF7D4
:101DE0005DFE002840F0B680AE423FF46EAFDDE904
:101DF00010010A4B0022FEF7DFFB084BCDE9100172
:101E0000002250465946FEF7D7FB82468B46C6E76E
:101E1000283B0008003B00080000F03F0000244081
:101E200000001C40000014400000E03FDDE91023EA
:101E3000FEF7C2FB009B009DCDE9100133441593D2
:101E400059465046FEF768FE0446FEF74BFB303419
:101E50000B46024659465046FEF7F6F905F8014B87
:101E6000159B9D4282468B4627D1009B0022DDE9CF
:101E700010011E44B34BFEF7E9F902460B465046EB
:101E80005946FEF729FE002864D1DDE91023AD494B
:101E90000020FEF7D9F902460B4650465946FEF798
:101EA000FDFD00283FF411AF334616F8012D302A0E
:101EB000FAD01E46DDF808803AE0A34B0022FEF778
:101EC0007BFB82468B46BBE7009E52465B46DDE9C4
:101ED0000601FEF79BFCFEF71FFE0746FEF702FB1E
:101EE00052465B46FEF768FB02460B46DDE90601FB
:101EF000FEF7AAF907F1300C009C06F801CBA6EB1F
:101F0000040C049C644502460B4633D1FEF79EF94F
:101F100052465B4604460D46FEF7DEFDC0B952460A
:101F20005B4620462946FEF7AFFD08B1FB070FD4FC
:101F30000199484600F0BAFB0023139A337008F168
:101F400001031360239B002B3FF4E2AC1E60DFE42F
:101F5000CDF8088033461E4613F8012D392A06D1E4
:101F6000009A9A42F7D1029A01320292302201324B
:101F70001A709FE7744B0022FEF71EFB02460B46C9
:101F8000CDE9062300220023FEF77EFD00289CD029
:101F9000CEE70B9A002A00F0E3800A9A012A00F3A8
:101FA000C280149A002A00F0BA8003F23343099DDC
:101FB0003E46089A01211A4448461F44089200F000
:101FC00029FC044656B1089B002B07DDB342089A52
:101FD000A8BF3346FF1AF61AD31A0893099B0BB30E
:101FE0000B9B002B00F0C380002D00F0BD8021462C
:101FF0002A46484600F0CEFC019A0146044648466F
:1020000000F01EFC01998246484600F04FFB099BF8
:102010005B1B099300F0AE80099A5146484600F0D8
:10202000B9FC01900121484600F0F4FB0D9B0546E8
:10203000002B00F0D7811A460146484600F0AAFC62
:102040000A9B012B054600F39D800E9B002B40F060
:1020500094800F9BC3F31303002B40F08E800F9BE3
:1020600023F000431B0D1B05002B00F08980089B0B
:102070000133013708934FF0010A0D9B002B00F04C
:10208000B7812B6905EB8303186900F077FBC0F17A
:102090002000089B184410F01F007ED0C0F12003E0
:1020A000042B72DD089BC0F11C0003440744064466
:1020B0000893002F05DD01993A46484600F0C6FC1A
:1020C0000190089B002B05DD29461A46484600F082
:1020D000BDFC0546129B002B61D00198294600F0FB
:1020E00023FD00285BDA08F1FF33029301990023F6
:1020F0000A22484600F0FCFA0B9B0190002B00F0EE
:102100007981002321460A22484600F0F1FA059B16
:10211000002B044672DC0A9B022B49DC6EE0169B06
:10212000C3F1360343E7049B5D1E099BAB420DDB05
:102130005D1B049B002BBFF63BAF049BFE1A0023E4
:1021400037E700BF0000E03F00002440099B0D9AE4
:102150000995EB1A1A440D92049B3E46002528E788
:10216000099D0B9C3E462DE7DDF804A054E7099A33
:10217000019953E7CDF804A054E74FF0000A7CE73B
:102180009A467AE74FF0000A7BE792D0089A1C3310
:102190001A441F441E4408928BE70346F6E7049B4B
:1021A000CDF80880002B23DC05930A9B022B21DD50
:1021B000059B002B7FF4B0AD29460522484600F070
:1021C00097FA01460546019800F0AEFC00287FF71B
:1021D000A3AD009E312306F8013B029B013302931D
:1021E0009EE535462C46F4E7049DCDF80880F9E7D6
:1021F000049B05930B9B002B00F00081002E05DD56
:1022000021463246484600F021FC0446BAF1000F50
:102210005AD06168484600F00BFA064628B9824B4E
:10222000024640F2EF21FFF73ABB226902329200E8
:1022300004F10C010C3000F03DFE0122314648460D
:1022400000F004FC0746009B009A03F1010B059B7C
:10225000134406930E9B03F0010308930BF1FF3325
:10226000294601980493FFF778FA2146059000F17A
:10227000300A019800F058FC3A4680462946484604
:1022800000F06EFCC268064602BB0146019800F0F1
:102290004BFC024631464846099200F007FADDE958
:1022A000092342EA0301089B19435E4610D1BAF1A3
:1022B000390F2BD0B8F1000F02DD059B03F1310A75
:1022C000049B83F800A02DE52746BCE70122E1E747
:1022D000B8F1000F06DB0A9B48EA0308089B58EA9E
:1022E000030820D1002AEBDD01990122484600F0C5
:1022F000ADFB2946019000F017FC002803DCDFD17C
:102300001AF0010FDCD0BAF1390FD6D1049A392373
:10231000137033461E46013B16F8012C392A52D061
:1023200001321A70FEE4002A07DDBAF1390FEDD050
:10233000049A0AF101031370F4E4069B0BF801AC54
:102340005B452AD0019900230A22484600F0D0F9C3
:10235000BC4201904FF000034FF00A02214648466C
:1023600006D100F0C5F9044607460BF1010B75E7ED
:1023700000F0BEF93946044600230A22484600F020
:10238000B7F90746F1E7059B5E1E002B009BD8BFFF
:1023900000265A1C2746164400240199012248466B
:1023A00000F054FB2946019000F0BEFB0028B0DC91
:1023B00002D11AF0010FACD133461E4613F8012D9D
:1023C000302AFAD0AEE4009A9A42A3D1029B01339C
:1023D00002933123AFE7239B002B7FF494AA134B86
:1023E000FFF7B3BA0A9B012B7FF72FAEDDF834A0BD
:1023F00001204EE6059B002B7FF7D7AE009E01988B
:102400002946FFF7AAF900F1300A009B06F801AB54
:10241000F21A059B9342B6DD019900230A22484631
:1024200000F066F90190EAE7313A0008B439000893
:1024300038B50546002941D051F8043C0C1F002B4B
:10244000B8BFE41800F0E8F81D4A136833B96360B8
:1024500014602846BDE8384000F0E4B8A34208D92B
:10246000206821188B4201BF19685B680918216038
:10247000EDE71A465B680BB1A342FAD91168501810
:10248000A0420BD120680144501883421160E0D172
:1024900018685B68536008441060DAE702D90C23BF
:1024A0002B60D6E7206821188B4204BF19685B684F
:1024B000636004BF091821605460CAE738BD00BFDB
:1024C0002C030020024B0146186800F025B800BF1D
:1024D0000C00002070B50F4E0C463168054611B94E
:1024E00000F0D8FC30602146284600F0D3FC431CA5
:1024F00003D14FF0FF34204670BDC41C24F0030408
:10250000A042F8D0211A284600F0C4FC0130F2D1D4
:10251000EFE700BF280300202DE9F843CD1C25F08C
:10252000030508350C2D38BF0C25002D064601DBB0
:10253000A94204D90C2333600020BDE8F883DFF8FA
:10254000D48000F069F8D8F800301C4644BB294616
:102550003046FFF7BFFF431C044658D1D8F800406F
:102560002746002F43D1002C4BD0236839463046F4
:1025700004EB030900F08EFC814542D121686D1AFD
:1025800029463046FFF7A6FF01303AD023682B4496
:102590002360D8F800305A6862BBC8F800700FE0BA
:1025A0002268521B20D40B2A17D96119A342256037
:1025B00018BF5960636808BFC8F8001062514B60CB
:1025C000304600F02FF804F10B00231D20F0070027
:1025D000C21A1CBF1B1AA350AFE76268A3420CBF0C
:1025E000C8F800205A60EBE723466468AEE73C4633
:1025F0007F68B6E71A465B68A342FBD100235360AD
:10260000DEE70C233360304600F00CF894E70560F9
:10261000D6E700BF2C0300200148FFF79CB800BF9D
:10262000240300200148FFF797B800BF24030020CF
:1026300070B5C46905460E4684B91020FFF742FF05
:102640000446E86128B90246164B17486B2100F092
:102650003FFC0023C0E901330360C360E36853B962
:1026600021220421284600F051FCEB69E060DB6880
:102670000BB9002070BD53F8260030B1026843F852
:1026800026200023C0E90333F4E7012101FA06F410
:10269000621D9200284600F039FC0028E9D0C0E90C
:1026A0000164EEE7C1390008423A000870B5C66916
:1026B00005460C4676B91020FFF704FF0246E86194
:1026C00020B9094B09488F2100F002FCC0E90166DE
:1026D0000660C6603CB1EB696268DB6853F82210A3
:1026E000216043F8224070BDC1390008423A000819
:1026F0002DE9F0410D6907460C461E4601F1140C08
:102700000020DCF8003099B202FB01611E0C0B0CBA
:1027100002FB063389B2013001EB034185424CF8DC
:10272000041B4FEA1346ECDC0EB3A368AB4219DC82
:10273000616838460131FFF77BFF804628B90246C1
:102740000C4B0D48BA2100F0C3FB2269023204F1A0
:102750000C0192000C3000F0ADFB21463846FFF72B
:10276000A5FF444604EB850301355E6125612046E3
:10277000BDE8F081313A0008423A0008B0F5803FE8
:10278000034636BF030400201020B3F1807F3CBF16
:102790001B020830B3F1805F3CBF1B010430B3F172
:1027A000804F3CBF9B000230002B05DB13F0804FB5
:1027B00000F1010008BF202070470368024613F0B3
:1027C00007000BD0D90721D4980749BF5B089B08A5
:1027D000012013605CBF13600220704799B209B9F1
:1027E0001B0C1020D9B209B908301B0A190704BF05
:1027F0001B090430990704BF9B080230D90703D492
:102800005B0800F1010003D013607047002070479F
:102810002020704710B50C460121FFF709FF024642
:1028200028B9054B054840F2451100F051FB012342
:102830004461036110BD00BF313A0008423A00080C
:102840002DE9F04FD1F81090D2F810A0D14585B005
:102850008846144604DB53460C46CA4690469946C1
:10286000A36861680AEB0906B342B8BF0131FFF7FC
:10287000DFFE30B90246454B45484FF4B17100F0D8
:1028800027FB00F1140505EB86072B460022BB420F
:102890001FD304F1140C08F114010CEB8A0301EBB3
:1028A000890202921A1B153A22F0030215349C4247
:1028B00088BF00220192029A03918A420CD8002E0E
:1028C00003DD57F8043D002B5DD0066105B0BDE87F
:1028D000F08F43F8042BDAE7B1F800A0BAF1000F4B
:1028E00024D0E046A9464FF0000E58F8042BD9F842
:1028F00000401FFA82FBA4B20AFB0B444FEA124BC2
:10290000D9F8002074444FEA124E0AFB0BE202EBA6
:102910001442A4B244EA0244434549F8044B4FEA46
:10292000124EE2D8019AAA18C2F804E0039AB2F84B
:1029300002800431B8F1000F23D02A68E6469146A0
:10294000AA464FF0000BBEF8004008FB04B404EBAD
:10295000194492B242EA04424AF8042B5EF8042B6E
:10296000DAF800904FEA124B1FFA89F208FB0B22AB
:1029700002EB144273454FEA124BE4D8019C2C1928
:102980006260043597E7013E99E700BF313A0008DD
:10299000423A00082DE9F843174612F00302804638
:1029A0000D4607D0264C013A002354F82220FFF7A9
:1029B0009FFE0546BF103FD0D8F81C4094B91020A8
:1029C000FFF780FD0446C8F81C0030B902461D4BD5
:1029D0001D4840F2B31100F07BFA0023C0E9013337
:1029E0000360C360A66846B940F271214046FFF714
:1029F00011FF0023A060064603602C464FF000093B
:102A000007F001037F1053B1294632464046FFF7D5
:102A100017FF214605464046FFF748FE67B130687C
:102A200038B9324631464046FFF70AFF3060C0F8F9
:102A3000009006462C46E3E72846BDE8F88300BF31
:102A4000F43A0008C1390008423A00082DE9F84F6D
:102A50000C464968236903EB6218A36807461546CC
:102A60004FEA621A08F101094B450BDB3846FFF7C4
:102A7000DFFD064648B90246294B2A484FF4EF715C
:102A800000F026FA01315B00EEE7002300F1140CA0
:102A900000F110021946534535DB22692AEAEA7A29
:102AA0000CEB8A0C04F1140315F01F0E614603EBC6
:102AB00082022CD0CEF1200A002518688B4600FA3D
:102AC0000EF02843CBF8000053F8045B9A4201F162
:102AD000040125FA0AF5F0D8131B153B23F0030374
:102AE00004F115018A4238BF00239C44CCF80450FD
:102AF00005B9C1463846C6F810902146FFF7D6FD05
:102B00003046BDE8F88F42F8041F0133C3E753F89D
:102B1000045B0D609A4201F10401F8D8E9E700BFB7
:102B2000313A0008423A00080A6903460069801AEF
:102B300030B50ED11433143103EB820401EB820162
:102B400054F8045D51F8042D954203D005D24FF09E
:102B5000FF3030BDA342F3D3FBE70120F9E70000CB
:102B60002DE9F74F8A460646114650461446FFF7B0
:102B7000DBFF051E12D129463046FFF759FD0246FC
:102B800028B9414B40F23721404800F0A1F9012318
:102B9000C0E90435104603B0BDE8F08FBCBF534612
:102BA000A2463046DAF80410BABF1C4601250025BB
:102BB000FFF73EFD024618B9334B40F24521E3E7EB
:102BC000DAF810702669C5600AF1140904F1140ED0
:102BD00000F114050AF1100309EB87080EEB8606D5
:102BE0000193AB464FF0000C019B5EF8040B53F8C9
:102BF00004AF01931FFA8AF3194683B2CB1A000C73
:102C00006344C0EB1A4000EB23409BB243EA00430D
:102C100076454BF8043B4FEA204CE5D8331B153B77
:102C2000153423F00303A64238BF0023E8184B44B1
:102C30001C1D04302646A5EB0905464506EB050E8E
:102C40000ED308F10301091B21F00301013398455C
:102C500038BF0021014451F8043D9BB1176199E749
:102C600056F8041BE2464FEA11491CFA81FC514414
:102C700009EB2C4989B241EA09414FEA294CCEF8C7
:102C80000010DAE7013FE6E7313A0008423A00086F
:102C90002DE9F7430F46012159EC108B1646FFF73B
:102CA000C7FC044630B90246234B244840F20F319A
:102CB00000F00EF9C9F30A55C9F313030DB143F43B
:102CC00080130193B8F1000323D068460093FFF707
:102CD00074FD0099D8B1019AC0F1200302FA03F300
:102CE0000B43C24063610192019BA361002B0CBFA7
:102CF000012202222261A5B1A5F2334505443D60BF
:102D0000C0F135003060204603B0BDE8F08361615A
:102D1000EAE701A8FFF751FD019B63612030012222
:102D2000E8E704EB8203A0F2324038601869FFF74D
:102D300025FDC0EB4210E5E7313A0008423A0008B1
:102D4000B1F90C202DE9F041160705460C4651D487
:102D50004B68002B02DC0B6C002B49DDE66A002E71
:102D600046D0002312F480522F682B6031D0626D60
:102D7000A389590705D56368D21A636B0BB1236C1D
:102D8000D21A0023E66A216A2846B047421CB4F9E9
:102D90000C3006D129681D2946D8294ACA40D607D1
:102DA00042D500226260D9042269226004D5421C07
:102DB00001D12B6803B96065616B2F60C1B104F16B
:102DC0004403994202D02846FFF732FB0023636395
:102DD0000EE0216A01232846B0470246501CC7D1A5
:102DE0002B68002BC4D01D2B01D0162B1AD12F60BD
:102DF00000201EE00F69002FFAD093070E6808BF6D
:102E00004B690F6018BF0023A6EB07088B60B8F171
:102E1000000FEDDD216AA66A43463A462846B047D0
:102E2000002808DCB4F90C3043F04003A3814FF0D4
:102E3000FF30BDE8F0810744A8EB0008E7E700BFDA
:102E40000100402038B50B6905460C4613B9002532
:102E5000284638BD18B1036A0BB9FEF7AFFBB4F9C9
:102E60000C30002BF3D0626ED00704D4990502D445
:102E7000A06DFEF770FC28462146FFF761FF636EE8
:102E8000DA070546E4D4A3899B05E1D4A06DFEF7DB
:102E900063FCDDE738B5064D0023044608462B6089
:102EA00000F026FD431C02D12B6803B1236038BD1E
:102EB000200300200A44914200F1FF3300D1704703
:102EC00010B511F8014B03F8014F9142F9D110BD33
:102ED0001FB514461A46094B1B680546D8684CB105
:102EE000074B0091CDE9013406492B4600F042F82A
:102EF00000F052F8044B1C46F3E700BF0C00002022
:102F0000A63A0008B33A0008E13A000870B5A1FB00
:102F1000025434B92946FFF7FFFA064628B930466D
:102F200070BD0C2202600026F9E72A462146FEF712
:102F3000BFFBF4E782B001B901A942B14BB11378EC
:102F40000B601278101E18BF012002B070471046A7
:102F5000FBE76FF00100F8E70346084641B1FF2A9E
:102F600004D98A221A604FF0FF3070470A7001209E
:102F7000704700000EB403B5014603AB054853F893
:102F8000042B0068019300F037F802B05DF804EB01
:102F900003B070470C00002008B5062000F0FEF9D1
:102FA000012000F02DFC9368013B002B10B49360CE
:102FB00008DA9469A34201DB0A2903D15DF8044BC6
:102FC00000F032B91368581C1060197008465DF89B
:102FD000044B7047F8B506460F461446D518AC4268
:102FE00001D1002007E014F8011B3A463046FFF7F4
:102FF000DAFF431CF3D1F8BD2DE9F04F0D469DB02B
:1030000014469846064618B1036A0BB9FEF7D6FA7D
:103010006B6ED90705D4AB899A0502D4A86DFEF76B
:103020009AFBAB891B0701D52B699BB92946304612
:1030300000F038F970B16B6EDC0704D54FF0FF304B
:103040001DB0BDE8F08FAB899805F7D4A86DFEF7E9
:1030500083FBF3E70023099320238DF82930CDF873
:103060000C803023DFF8AC818DF82A304FF0010955
:1030700023469A4613F8012B0AB1252AF9D1BAEB57
:10308000040B0BD05B46224629463046FFF7A2FFD1
:10309000013000F0A780099A5A4409929AF800304A
:1030A000002B00F09F8000234FF0FF32CDE9052375
:1030B0000AF1010A049307938DF853301A9354468A
:1030C000052214F8011B5348FDF762F8049AD8B999
:1030D000D10644BF20238DF85330130744BF2B2360
:1030E0008DF853309AF800302A2B15D0079A5446A1
:1030F00000204FF00A0C214611F8013B303B092B10
:103100004BD9B0B1079214E0A0EB080309FA03F31E
:1031100013430493A246D2E7039B191D1B68039136
:10312000002BBBBF5B4242F0020207930793B8BF7C
:10313000049223782E2B0AD163782A2B32D1039B59
:103140001A1D1B68039243EAE37302340593DFF808
:10315000D4A0217803225046FDF71AF838B1049B19
:10316000A0EB0A004022824013430134049314F878
:10317000011B29488DF828100622FDF709F80028C0
:103180003FD0264B1BBB039B073323F007030833B9
:103190000393099B3B4409936AE70CFB02320C46FC
:1031A0000120A8E700230134059319464FF00A0CCB
:1031B000204610F8012B303A092A03D9002BC6D03B
:1031C0000591C4E70CFB012104460123F0E703ABA2
:1031D00000932A46124B04A93046FDF7ABFD074683
:1031E000781CD6D16B6ED90705D4AB899A0502D469
:1031F000A86DFEF7B1FAAB895B063FF51FAF0998E2
:103200001EE703AB00932A46054B04A93046FEF7A0
:1032100027F8E4E7E23A0008EC3A0008350D000828
:10322000D52F0008E83A0008F8B50E4614460546C2
:1032300018B1036A0BB9FEF7C1F9A369A360A389AA
:103240001A0701D5236943B92146284600F02AF818
:1032500018B14FF0FF373846F8BD23682269981A35
:103260006369F6B28342374605DC21462846FFF7FC
:10327000E9FD0028EDD1A368013BA36023685A1C37
:1032800022601E706269431C9A4204D0A389DB0746
:10329000E1D50A2EDFD121462846FFF7D3FD0028CD
:1032A000D9D0D6E738B5284B054618680C4618B172
:1032B000036A0BB9FEF782F9B4F90C301A0721D46E
:1032C000D80607D409222A6043F04003A3814FF0B7
:1032D000FF3030E0590712D5616B41B104F144036E
:1032E000994202D02846FFF7A3F800236363002227
:1032F000B4F90C3062602269226023F0240343F0A9
:103300000803A38122693AB99A0501D5180603D5A5
:103310002146284600F082F8B4F90C3013F001027F
:103320000AD00022A26062695242A261226942B9B7
:1033300013F08000C8D138BD990758BF6269A260F8
:10334000F4E70020F7E700BF0C0000201F2938B584
:1033500005460C4604D9162303604FF0FF3038BDF4
:10336000C26B12B152F821304BB9284600F030F848
:10337000224601462846BDE8384000F017B8012B28
:103380000AD0591C03D1162303600120E7E700216E
:1033900042F82410204698470020E0E7024B0146FF
:1033A0001868FFF7D3BF00BF0C00002038B5074DE9
:1033B00000230446084611462B6000F011FA431C16
:1033C00002D12B6803B1236038BD00BF2003002069
:1033D00000F0FEB970B50C46B1F90E10002996B098
:1033E00015461E460ADAA18911F0800113D14FF467
:1033F0008062002031602A6016B070BD6A4600F01D
:1034000047F80028EFDB019901F47041A1F5005362
:1034100059425941EBE700214022EAE78B8973B515
:103420009E0705460C4607D504F147032360236138
:103430000123636102B070BD01AB6A46FFF7CAFFAA
:10344000009E28463146FFF767F8B4F90C3038B9CA
:103450009A05EFD423F0030343F00203A381E3E7CB
:1034600043F08003A381019B2060C4E90406002B84
:10347000E0D0B4F90E10284600F01CF80028D9D08E
:10348000A38923F0030343F00103A381D2E70000E3
:1034900038B5074D00230446084611462B6000F05E
:1034A000FFF9431C02D12B6803B1236038BD00BF74
:1034B0002003002038B5064D0023044608462B6043
:1034C00000F0FEF9431C02D12B6803B1236038BD24
:1034D00020030020002103E00A4B5B5843500431D5
:1034E00009480A4B42189A42F6D3094A02E00023DF
:1034F00042F8043B074B9A42F9D300F0B7F800F0CA
:103500001FF87047043D000800000020C80100209B
:10351000C801002034030020FEE780B483B000AF70
:10352000786002E07B68013B7B607B68002BF9D10F
:1035300000BF00BF0C37BD465DF8047B704700003C
:1035400080B500AF284B1B68274A43F00103136086
:10355000264B1B68254A23F440331360234B1B681A
:10356000224A43F480331360214B1B68204A23F422
:10357000807313601E4B1E4A1B6813601D4B1B6833
:103580001C4A23F4403313601A4B1A4A1B68136019
:10359000194B1B68184A23F440331360164B1B6801
:1035A000154A43F480331360144B1B68134A43F0ED
:1035B00080731360114B1B68104A43F480731360CF
:1035C0000E4B1B680D4A43F0807313600C48FFF7E5
:1035D000A4FF0A4B1B68094A43F480731360084830
:1035E000FFF79BFF00BFEBE73038024000000240CE
:1035F00004000240080002400C0002401800024093
:10360000FFFF0F0080B400AF00BFBD465DF8047B34
:10361000704780B400AF00BFFDE780B400AF00BFCB
:10362000FDE780B400AF00BFFDE780B400AF00BF8E
:10363000FDE780B400AF00BFBD465DF8047B704776
:1036400080B400AF00BFBD465DF8047B704780B416
:1036500000AF00BFBD465DF8047B704780B400AF8B
:1036600000BFBD465DF8047B7047000080B500AF29
:10367000164BD3F88830154A43F47003C2F88830EB
:10368000134B1B68124A43F001031360104B0022D6
:103690009A600F4B1B680E4A23F0847323F4803327
:1036A00013600B4B0B4A5A60094B1B68084A23F402
:1036B00080231360064B0022DA6000F00DF8034B04
:1036C0004FF000629A6000BF80BD00BF00ED00E0D7
:1036D000003802401030002480B483B000AF0023D3
:1036E0007B6000233B60364B1B68354A43F48033D4
:1036F0001360334B1B6803F400333B607B6801337A
:103700007B603B68002B03D17B68B3F5A04FF0D101
:103710002B4B1B6803F40033002B02D001233B60CA
:1037200001E000233B603B68012B42D1244B1B6C22
:10373000234A43F080531364224B1B68214A43F40D
:10374000404313601E4B1E4A9B6893601C4B9B6852
:103750001B4A43F400439360194B9B68184A43F497
:10376000A0539360164B184A5A60154B1B68144AB5
:1037700043F08073136000BF114B1B6803F00073AC
:10378000002BF9D0114B40F205721A600C4B9B686C
:103790000B4A23F003039360094B9B68084A43F0EC
:1037A0000203936000BF064B9B6803F00C03082BD9
:1037B000F9D100BF0C37BD465DF8047B704700BFF0
:1037C000003802400070004019544007003C02409D
:1037D00080B400AF01231846BD465DF8047B7047F6
:1037E00080B582B000AF7860396000F0B7F803466A
:1037F00016221A604FF0FF3318460837BD4680BDC9
:1038000080B582B000AF78604FF0FF317868FFF785
:10381000E7FF00BFFDE780B586B000AFF860B96094
:103820007A6000237B610AE0AFF300800146BB6849
:103830005A1CBA60CAB21A707B6901337B617A691B
:103840007B689A42F0DB7B6818461837BD4680BD1E
:1038500080B586B000AFF860B9607A6000237B6104
:1038600009E0BB685A1CBA601B781846AFF30080A9
:103870007B6901337B617A697B689A42F1DB7B6803
:1038800018461837BD4680BD80B483B000AF78605D
:103890004FF0FF3318460C37BD465DF8047B704788
:1038A00080B483B000AF786039603B684FF4005259
:1038B0005A60002318460C37BD465DF8047B7047FC
:1038C00080B483B000AF7860012318460C37BD4642
:1038D0005DF8047B704780B485B000AFF860B960D4
:1038E0007A60002318461437BD465DF8047B7047A4
:1038F00080B586B000AF7860144A154BD31A7B614F
:103900007B693B61134B1B68002B02D1114B124AA0
:103910001A60104B1A687B6813443A699A4207D2BE
:1039200000F01CF803460C221A604FF0FF3309E048
:10393000084B1B68FB60074B1A687B681344054AF9
:103940001360FB6818461837BD4680BD0000022092
:10395000000400003003002038030020014B1868E9
:10396000704700BF0C000020F8B500BFF8BC08BCD1
:103970009E467047F8B500BFF8BC08BC9E4670472D
:10398000494E4600696E66004E414E006E616E0003
:1039900030003031323334353637383941424344E0
:1039A0004546003031323334353637383961626359
:1039B00064656600496E66696E697479004E614E91
:1039C000005245454E54206D616C6C6F63207375D9
:1039D00063636565646564002F646174612F6A6563
:1039E0006E6B696E732F776F726B73706163652F87
:1039F000474E552D746F6F6C636861696E2F6172ED
:103A00006D2D31342F7372632F6E65776C69622D63
:103A100063796777696E2F6E65776C69622F6C6961
:103A200062632F7374646C69622F64746F612E63B8
:103A30000042616C6C6F63207375636365656465D8
:103A400064002F646174612F6A656E6B696E732FF9
:103A5000776F726B73706163652F474E552D746F6E
:103A60006F6C636861696E2F61726D2D31342F73D5
:103A700072632F6E65776C69622D63796777696E03
:103A80002F6E65776C69622F6C6962632F73746443
:103A90006C69622F6D707265632E63004300504F36
:103AA000534958002E002C2066756E6374696F6E42
:103AB0003A2000617373657274696F6E20222573FA
:103AC00022206661696C65643A2066696C65202213
:103AD0002573222C206C696E65202564257325735F
:103AE0000A00232D302B2000686C4C00656667456A
:103AF0004647000005000000190000007D0000009E
:103B00000080E03779C34143176E05B5B5B89346D9
:103B1000F5F93FE9034F384D321D30F94877825AA5
:103B20003CBF737FDD4F1575000000000000F03FC3
:103B30000000000000002440000000000000594088
:103B40000000000000408F40000000000088C340DB
:103B500000000000006AF8400000000080842E4150
:103B600000000000D01263410000000084D797419C
:103B70000000000065CDCD41000000205FA00242A2
:103B8000000000E876483742000000A2941A6D4217
:103B9000000040E59C30A2420000901EC4BCD6420A
:103BA00000003426F56B0C430080E03779C34143B5
:103BB00000A0D8855734764300C84E676DC1AB432B
:103BC000003D9160E458E143408CB5781DAF154449
:103BD00050EFE2D6E41A4B4492D54D06CFF0804424
:103BE000F64AE1C7022DB544B49DD9794378EA4439
:103BF00000202020202020202020282828282820BD
:103C000020202020202020202020202020202020B4
:103C1000208810101010101010101010101010101C
:103C2000100404040404040404040410101010100C
:103C300010104141414141410101010101010101D6
:103C40000101010101010101010101011010101028
:103C500010104242424242420202020202020202A8
:103C600002020202020202020202020210101010FC
:103C70002000000000000000000000000000000024
:103C80000000000000000000000000000000000034
:103C90000000000000000000000000000000000024
:103CA0000000000000000000000000000000000014
:103CB0000000000000000000000000000000000004
:103CC00000000000000000000000000000000000F4
:103CD00000000000000000000000000000000000E4
:103CE00000000000000000000000000000000000D4
:043CF00000000000D0
:083CF4009CC4FF7F01000000E9
:043CFC00D10B0008E0
:043D0000A90B000803
:103D04000000000003000000E40100201000002077
:103D140000000000E40100204C020020B402002056
:103D2400000000000000000000000000000000008F
:103D3400000000000000000000000000000000007F
:103D4400000000000000000000000000000000006F
:103D5400000000000000000000000000430000001C
:103D6400000000000000000000000000000000004F
:103D740000000000000000000000000043000000FC
:103D8400000000000000000000000000000000002F
:103D940000000000000000000000000043000000DC
:103DA400000000000000000000000000000000000F
:103DB40000000000000000000000000043000000BC
:103DC40000000000000000000000000000000000EF
:103DD400000000000000000000000000430000009C
:103DE40000000000000000000000000000000000CF
:103DF400000000000000000000000000430000007C
:103E040000000000000000000000000000000000AE
:103E1400000000000000000000000000430000005B
:103E2400000000000000000000000000000000008E
:103E3400000000000000000000000000592F0008EE
:103E4400352F000800000000F03B0008A43A0008E9
:103E5400E13A0008E13A0008E13A0008E13A0008D2
:103E6400E13A0008E13A0008E13A0008E13A0008C2
:103E7400E13A0008FFFFFFFFFFFFFFFFFFFFFFFF27
:103E8400FFFF0000010041534349490000000000C6
:103E9400000000000000000000000000000000001E
:103EA40000000000000041534349490000000000A5
:103EB40000000000000000000000000000000000FE
:083EC4000000000000000000F6
:04000005080034D5E6
:00000001FF
